:1040000038B30020798800007588000075880000AA
:1040100075880000758800007588000000000000A9
:104020000000000000000000000000007588000093
:104030007588000000000000758800007588000089
:10404000758800007588000075880000758800007C
:10405000758800007588000075880000758800006C
:10406000758800007588000075880000758800005C
:10407000758800007588000075880000758800004C
:1040800075880000758800007588000019760000AA
:10409000758800007588000075880000758800002C
:1040A000758800007588000075880000758800001C
:1040B0007588000075880000758800001D8100006B
:1040C00075880000758800007588000075880000FC
:1040D00075880000758800007588000075880000EC
:1040E00075880000758800007588000075880000DC
:1040F00000000000758800007588000075880000C9
:10410000758800007588000009810000758800002E
:1041100075880000758800007588000075880000AB
:10412000758800007588000075880000758800009B
:10413000758800007588000075880000758800008B
:10414000758800007588000075880000758800007B
:104150007588000075880000000000000000000065
:10416000000000000000000000000000000000004F
:10417000000000000000000000000000000000003F
:1041800045A000005DA0000061A0000065A0000047
:104190000000000075880000758800007588000028
:1041A000758800007588000075880000758800001B
:1041B000758800007588000075880000758800000B
:1041C00075880000758800007588000075880000FB
:1041D00075880000758800007588000075880000EB
:1041E00075880000758800007588000075880000DB
:1041F0007588000075880000758800002170000037
:1042000075880000000000000000000075880000B4
:1042100075880000758800007588000075880000AA
:10422000758800007588000075880000758800009A
:10423000758800007588000075880000758800008A
:10424000758800007588000075880000758800007A
:10425000758800007588000075880000758800006A
:104260000000000010B5054C237833B9044B13B19E
:104270000448AFF300800123237010BD701C0020A0
:104280000000000098BD000008B5034B1BB10349B6
:104290000348AFF3008008BD00000000741C00203C
:1042A00098BD0000704708B5FFF7FCFF08BD7047D8
:1042B00008B5FFF7FCFF08BD2C4A2D492D48002307
:1042C000F0B553601360C2F807302B4A2B4F536090
:1042D0001360C2F80730C1E90033294A00F10B0628
:1042E00053601360C2F807304FF0010C3278047845
:1042F00007EBC2120CFA04F4546016F8014B10F8E4
:10430000015B07EBC4120CFA05FEC2F814E02A4464
:10431000013392F8405045F0020582F8405092F87F
:10432000405045F0040582F8405051F82420DBB29B
:1043300042EA0E020B2B41F82420D7D1114C12482F
:104340000E4D0023012610F8012B14F8011B013338
:1043500005EBC212DBB206FA01F1082B9160516144
:10436000F1D1BDE8F04000F000B900BFA32000206B
:104370009020002000000020AE200020008000419E
:104380009820002016000020901C00202DE9F04FFE
:10439000484D87B002F022FBD5E90223994208BFBD
:1043A00090427AD3444BDFF82481444FDFF820A1B8
:1043B000039300245C601C60C3F80740A9460126F3
:1043C00099F8003098F8002007EBC31306FA02F2C0
:1043D0009A61012002F034FF3A6ADAF80030384876
:1043E00013400493D7F8A020DAF804301340059363
:1043F00019F8013B18F8012B07EBC31306FA02F278
:104400005A6106FA04F35BB202932B4B01931A46EE
:10441000A0F10B0B0B2310F801EB1BF801CB06A945
:1044200001EB8E0E06FA0CFC5EF808EC1CEA0E0F8F
:104430001CBF92F800C0029903F1FF331CBF41EA90
:104440000C0C82F800C013F0FF0302F10102E2D16C
:104450000134082CB4D11B4C03980B22277810F898
:10446000016B04F8016B013AB74218BF012312F047
:10447000FF02F3D1ABB9144A0B230199013B11F8A8
:10448000010B019113F0FF0302F8010BF5D100229B
:104490000023C5E9022300F074F8012007B0BDE84D
:1044A000F08F02F09BFA053041F10001C5E90201ED
:1044B000F1E700BF901C0020A320002000800041F5
:1044C0000B000020AE2000209820002016000020C5
:1044D00090200020014B185C704700BF98200020FE
:1044E000704703F043BF012070470120704708B5B3
:1044F000FFF7FBFF08BD704708B5FFF7FCFF08BDDD
:1045000013B502AB03E903000F4B1B78B3B99DF859
:104510000230009873B16AB101F08CFF0446014685
:10452000009801F043FF0099204602B0BDE810401A
:1045300000F090B801F05EFF0446F4E7009801F047
:1045400079FF0099F1E700BF101D002003460A46DD
:1045500000689988FFF7D4BF10B500210446FFF723
:10456000F5FF2146FFF7C8FF10BD08B502F0AAF815
:1045700008B902F023F900F071FCBDE80840FFF72C
:1045800092BE08B500F0D2FBBDE80840FFF790BE30
:10459000704708B5FFF7FCFF08BD0120704708B55C
:1045A000FFF7FBFF08BD10B50446FFF7F2FF2046FA
:1045B000FFF7F5FF10BD704708B501F001FBFFF7ED
:1045C000FAFFFA20002102F049FEBDE8084002F09F
:1045D00025BA38B501210446FFF7B8FF2146054644
:1045E00000F03AFB08B9002038BD21462846FFF705
:1045F0007EFF0028F7D02146284600F0D9FD00288C
:10460000F1D02146284600F019FE0028EBD02146C3
:10461000284600F027FF0028E5D02146284600F074
:1046200013FD0028DFD0A37833B1B5F5B84F07D01C
:1046300045F6DE439D4206D02046FFF754FFD3E700
:10464000FFF7BAFFCFE702F0B9F8CCE700207047D8
:1046500070470000C1F307220B2303FB0020C000BA
:1046600050FA81F0024B33F8100082B002B070476C
:1046700028B90000014B33F810007047BABA0000A7
:1046800013B5ADF804100199FFF7E4FF00F0C6F888
:10469000B0F5A04F044629D2B0F5804F80F0868057
:1046A000DF2813D8C02873D2A7280BD8A5285FD23B
:1046B000012804D003B23BB1032898BF0024204650
:1046C00002B010BDBE285AD90024F8E7B0F5005F4B
:1046D00006D2B0F5807F7DD2E82828BF0024EEE71F
:1046E000B0F5405F5AD2C0F30B0053E0B0F5AA4FCB
:1046F00019D2B0F5A84FC3B278D2B0F5A44F07D203
:10470000B0F5A24F57D34AF2F10040EA0324D6E7AE
:10471000B0F5A64F60D29808012403F003039C4033
:1047200044EA401454E0B0F5B24F0ED2B0F5B04FA9
:1047300061D2B0F5AC4FC7D2C0B200F0F1F80402BC
:1047400004F4F85444F40054B9E7B0F5B44F57D327
:10475000A0F5C0439BB2B3F5005FB5D2C0F304200F
:1047600000F0DEF8000200F4F850E4B20443E9E798
:104770005B34E4B2284B1C5D44F480449FE758341A
:10478000254BE4B203EB4404A48844F4884496E740
:10479000C03880B2FFF76EFF044690E7C3B202054F
:1047A0004CBF43F4484443F4404488E7C0F30B044F
:1047B00044F4204483E7C3F38104C0F3011064018F
:1047C00044EA002403F00303012000FA03F31C432E
:1047D00044F40C44A4B272E79808012403F00303E4
:1047E0009C4044EA401444F40A44F3E74AF2F404D7
:1047F00044EA032463E74AF2F00040EA0424E9E7CC
:1048000000F00F0000F08CF8C4F3031440EA042415
:1048100044F41044DEE700BF88BA0000822825D0A7
:104820000CD8312863D004D8292859D02A2865D03B
:10483000704735284DD0392818D07047E32830D03C
:1048400004D8E02819D0E22826D07047E62832D0D4
:10485000E72835D0E42832D1304B5A7891072ED54D
:104860001B7813F0100F08BFE72012E02B4B1B78CA
:1048700013F0030F18BFE0207047284A1378D907B8
:1048800043D4527812F0010F19D013F0100F08BF63
:10489000E32018BF00207047204B1B7813F0040F53
:1048A000F2E71E4A1378590731D45278D20730D430
:1048B00013F0100FEDE7194B1B781A07D1D470478E
:1048C000164A1378190726D452789207F0D5E420B7
:1048D000F5E7124B1B7813F0200F18BF2920704703
:1048E0000E4B1B7813F0200F18BF352070470B4B71
:1048F0001B7813F0400F18BF2A207047074B1B7816
:1049000013F0400F18BF3120704739207047E22064
:104910007047E0207047E620704700BF0621002066
:10492000294B1A78510707D500F01801082927D11B
:1049300000F0F70040F00400110707D500F018015F
:10494000182926D100F0E70040F014005B78D90761
:1049500007D500F01801082924D100F0F70040F035
:104960000100990707D500F01803182B23D100F098
:10497000E70040F01100D30648BF00F0E7007047A1
:1049800000F01401042904BF00F0FB0040F008000F
:10499000D2E700F01401142904BF00F0EB0040F04E
:1049A0001800D3E700F01101012904BF00F0FE0058
:1049B00040F00800D5E700F01103112B04BF00F010
:1049C000EE0040F01800D6E706210020014B185CED
:1049D000704700BFA01C0020034BC218185C52781F
:1049E00040EA0220704700BFA01C0020054B024493
:1049F0001944904200D1704711F8013B00F8013B87
:104A0000F7E700BFA01C0020024B19541844090A04
:104A100041707047A01C0020044B195418440B0A25
:104A200043700B0C090E8370C1707047A01C0020EE
:104A3000054B02441944904200D1704710F8013BE5
:104A400001F8013BF7E700BFA01C0020014B1954FF
:104A5000704700BFA01C0020FFF7D6BFFFF7DCBFE8
:104A6000FFF7E6BF30B585B0C0F307230190314AA8
:104A7000C0F30740125CA3B98DF80C208DF80D200F
:104A80008DF80E209DF80C30002063F307009DF890
:104A90000D3063F30F209DF80E3063F3174005B01F
:104AA00030BD9DF8041001EB4104FF206400B4FB0D
:104AB000F0F46FF05400604300EB410000EB400065
:104AC000C0B213FB00F5C0F1FF00C3F1FF01434387
:104AD0002D121B12C5F1FF05C3F1FF0351435543CE
:104AE0005343C1F30721C5F30725C3F30723062C5E
:104AF0001DD8DFE804F006040D12171C060013464B
:104B00002A468DF80C308DF80D208DF80E10B9E77F
:104B1000184613460A460146F3E713460A46194665
:104B20002B46EEE718460B4611460246E9E70B46D0
:104B30002946E6E7C7BA000008221C210148FFF712
:104B400055BF00BFD020002008221C210148FFF7DC
:104B500087BF00BFD0200020074B1A46052102F86E
:104B6000011B064931F8080FA3F8010089789170FC
:104B700000221A71FFF7E8BFD0200020BABA000067
:104B80000020704770B506460D461446FFF7F8FF43
:104B9000044B03EBC6035B5DFF2B1EBF23540130A8
:104BA000C0B270BD1E000020014BDB68184700BF7B
:104BB00034BC000010B4034C6468A4465DF8044B98
:104BC000604700BF34BC00002DE9F3411D4A047862
:104BD0005378DFF874800646C4EB04149078E4B28E
:104BE00043EA002304F10F05D078EDB2772D43EAB4
:104BF00000402F4628BF7727FFF734FFC0F3072375
:104C00008DF80400C0F307408DF805308DF80600DC
:104C1000E3B29F4206D8762D8CBF0020012002B05F
:104C2000BDE8F08114F8082073781A4208D09DF886
:104C300006309DF804209DF805102046FFF7BAFFC6
:104C40000134E5E7D020002064010020014B9B687F
:104C5000184700BF34BC00002DE9F3418D780B46A6
:104C60002DB16A4609785878FFF78CFF0546294C24
:104C700027787B19082B21DDC5F10806691C32460F
:104C80002144601C06F0F4FC05F109013246214480
:104C900004F1090006F0ECFC04EB45017200193147
:104CA00004F1190006F0E4FC05F11101324621443B
:104CB00004F11100013F06F0DBFC2770002226788A
:104CC000154F11469446D0B28319A842DBB207D3E0
:104CD0003544EDB201B12570012002B0BDE8F0818C
:104CE0001DF802E00EF12C01E01817F8118080F891
:104CF000018007EB41010C3304EB43034978417217
:104D000080F811E0013283F801C083F802C001216C
:104D1000D9E700BFC41C00201E000020704708B562
:104D2000FFF7DFFBFFF7FAFF08BD0000F8B5454CC1
:104D3000E06A01F061FE064601F04AFE94F800E0E8
:104D4000E0620022C6F57F4773469446FF37D1B232
:104D5000714511D3BCF1000F00D023703A4B3B4C8E
:104D60001A7812F0030518BF95082278032A28D86C
:104D7000DFE802F0152B575F02F10C0104EB410153
:104D80000132B1F80150AF4237BF03F1FF33AD1923
:104D9000DBB24FF0010C28BFA1F80150D7E7002388
:104DA00063702B4B2B4A1860264B03F1280153F8F4
:104DB000040B42F8040B8B42F9D11B7813700123CA
:104DC0002370BDE8F840FFF7AABF2279AA4219D1A3
:104DD0001B78627903F003039B1A18BF0123E37069
:104DE00095B1012D17D0002063780133637000283E
:104DF000E7D102232370E378002BE2D1002DE0D12C
:104E00000323DDE70123EAE74BB12A46294628467A
:104E1000FFF71CFFE7E71048FFF7D6FEE4E7284658
:104E2000E2E71B782571C3F301036371FFF7BCFE52
:104E3000E6E7074B186801F0DFFD0928C1D9002318
:104E4000BEE700BFC41C0020D0200020DB010020F2
:104E5000D8200020DC200020DC01002008B5274BF2
:104E60001B689847264A4FF0FF3300211170537694
:104E70009376D376137753779377D37782F820306E
:104E800082F8213082F8223082F8233082F82430F0
:104E900082F8253082F8263082F8273082F82830D0
:104EA000184A117053769376D376137753779377A6
:104EB000D37782F8203082F8213082F8223082F8CD
:104EC000233082F8243082F8253082F8263082F8A8
:104ED000273082F8283001F0F5FB18B901F06EFC9C
:104EE000FFF73AFEFFF728FE074B1B7813F0FC0F85
:104EF00003D1BDE80840FFF72FBE08BD34BC000059
:104F0000DC200020C41C0020D0200020044A13789C
:104F100083F001031370034B00221A70FFF714BED5
:104F2000D0200020DB01002008490B78C3F3850264
:104F3000013202F03F02012A88BF012262F3870397
:104F40000B70034B00221A70FFF7FEBDD02000202B
:104F5000DB010020084A1378FC331370DBB213F036
:104F6000FC0F02BF012161F387031370034B002282
:104F70001A70FFF7E9BD00BFD0200020DB01002040
:104F8000024A537808335370FFF7DEBDD02000206B
:104F9000024A5378083B5370FFF7D6BDD02000205B
:104FA000044A93781033FF2B28BFFF239370FFF739
:104FB000CBBD00BFD0200020034A9378103B23EAEA
:104FC000E3739370FFF7C0BDD0200020044AD3786C
:104FD0001033FF2B28BFFF23D370FFF7B5BD00BFF1
:104FE000D0200020034AD378103B23EAE373D37028
:104FF000FFF7AABDD0200020044A13791033FF2BFD
:1050000028BFFF231371FFF79FBD00BFD0200020F2
:10501000034A1379103B23EAE3731371FFF794BD3E
:10502000D0200020044B1A7860F387021A70034BDB
:1050300000221A70FFF788BDD0200020DB0100207D
:1050400000B110470847000038B58C780546002CA1
:105050003DD001F06DFAA5F5B943423B00F02200C6
:10506000132B0ED8DFE803F00A0F14171A1D2023A4
:1050700026292C2F0C0C0C0C0C0C0C0CFFF746FFEB
:105080000024204638BD134A1349FFF7D9FFF7E73C
:10509000114A1049F9E7114A1149F6E7104A0F4938
:1050A000F3E7104A1049F0E70F4A0E49EDE70F4ABF
:1050B0000F49EAE70E4A0D49E7E70E4A0E49E4E7D1
:1050C0000D4A0C49E1E70120FFF7ACFFD8E70124C6
:1050D000D7E700BF554F0000294F0000914F000057
:1050E000814F0000B94F0000A14F0000E54F0000C4
:1050F000CD4F000011500000F94F00002DE9F041A4
:1051000098468378294F0C4615468BB1397001F0CB
:1051100057FC04F12003DBB2072B788043D804F05E
:1051200007040120A040C0B2BDE8F04100F016BB6A
:105130003E788E422DD1788801F056FCC72828D8B9
:10514000AE4205F1200415D006F12003DBB2072B97
:1051500006D806F007060120B040C0B200F007FBF9
:10516000E3B2072B06D805F0070301209840C0B230
:1051700000F0F4FA4046E4B200F0E0FA072C12D84E
:1051800005F007050120A840C0B2BDE8F04100F0DD
:10519000EEBA04F12003DBB2072B04D804F00704B5
:1051A0000120A040F0E7BDE8F08100BFF61C002020
:1051B00008B545F6F34203469342084626D012D876
:1051C00045F6D84293421DD045F6D94293422DD0A0
:1051D00045F6D74293420FD1E12226231146FFF72D
:1051E0008DFF002008BD45F6F542934216D011D33D
:1051F00045F6F642934215D08078D0B10E4B00228E
:105200001A70EFE72723E522E521E8E72623E122CC
:10521000E021E4E72723E522E421E0E72623E12259
:10522000E221DCE72723E522E621D8E72823012233
:10523000EAE70120D6E700BFF61C002038B5054696
:105240008878002800F0098145F602439D422CD35E
:1052500045F615439D4204D9A5F5B9437A3B082B81
:1052600023D801F03FFA7E4C45F610439D42208042
:1052700000F0C1803BD845F608439D4200F097807E
:105280001DD845F604439D4200F081800ED845F6B6
:1052900002439D4272D045F603439D4273D020885D
:1052A00001F02CFA00F08CFC002038BD45F60643D6
:1052B0009D4278D06FD9237843F0200361E045F612
:1052C0000C439D4200F0838008D845F60A439D4276
:1052D00077D070D923786FF3000352E045F60E4380
:1052E0009D427CD077D923786FF3041349E045F6CB
:1052F000FB439D4253D022D845F613439D4200F014
:1053000082800DD845F611439D4278D045F6124370
:105310009D42C4D100F054FC23786FF3C71330E0F2
:1053200045F615439D4276D0C0F0898045F6FA4394
:105330009D42B4D1637843F001036370AFE745F653
:10534000FF439D4263D0B5F5BA4F0AD245F6FD43FF
:105350009D424CD047D9637823F0030343F0030305
:10536000EBE745F601539D4273D0B5F5BA4F5DD9D1
:1053700045F602539D4292D100206BE0237843F022
:10538000010323708BE7237843F00203F9E72378C6
:1053900043F00403F5E7237843F00803F1E763786B
:1053A00043F00203C9E7237843F01003E9E72378C9
:1053B00043F04003E5E700F003FC237843F080036B
:1053C000DFE7237823F00C0343F00C03D9E72378BD
:1053D0006FF34103D5E723786FF38203D1E7237896
:1053E0006FF3C303CDE763786FF30003A5E763783A
:1053F0006FF34103A1E723786FF34513C1E72378E7
:105400006FF38613BDE7237823F00C03B9E76378C5
:1054100023F0030391E72378C3F3800282F00102B3
:10542000D2B262F3820362F3C303AAE76378DA437A
:1054300002F0010262F3000362F341037DE700F032
:10544000BFFB2378C3F3C01282F0010262F3C713DB
:1054500097E7012001F0B4F921E7012025E700BF1B
:105460000621002045F61643984210B50C461BD184
:1054700001F05EF8A2780D4B72B100F0AA0000288E
:1054800015BF01220022352029201A7001F020F8D2
:1054900001F0BAF8002010BD1B78002B14BF352096
:1054A000292001F01DF8F3E70120F4E7FA1C0020A1
:1054B000014B1860704700BFFC1C0020024B1868AD
:1054C00008B1036818477047FC1C0020024B1B689A
:1054D0000BB15B6818477047FC1C0020044B99888F
:1054E000814204D098801B680BB1DB681847704775
:1054F000FC1C0020044BD988814204D0D8801B6852
:105500000BB11B6918477047FC1C0020704770479F
:1055100008B5FFF7FBFF08BD704708B5FFF7FCFFB4
:1055200008BD08B5FFF7F3FFFFF7F2FF08BD012044
:10553000704708B5FFF7FBFF08BD08B501F06CFA2E
:10554000FEF7BAFE01F0CAFAFFF7E7FF08BD000058
:105550002DE9F04F85B0FEF719FFFFF7EAFF314E56
:10556000002848D0DFF8C0A0B04600255FFA85F9D2
:105570004846FEF7AFFF18F8017B8742834637D0D5
:105580009AF800309B0701D5FEF7AAFF00230124FB
:1055900087EA0B073C42DAB225D01BEA040F14BF9E
:1055A000012300238DF800208DF802308DF8019042
:1055B00001F006FA40F001006B46ADF8040093E8F4
:1055C000030000F033F8735D5C407455FFF776FF1D
:1055D000F37A834222D0FFF771FFF07205B0BDE885
:1055E000F04FFEF7E0BF01336400082BE4B2D1D1E5
:1055F00001350B2DBAD14FF6FF73ADF808300023FB
:105600008DF80A3001F0DCF940F00100ADF80C0033
:1056100004AB13E9030000F009F8D7E705B0BDE8D3
:10562000F08F00BF041D0020C51D002084B06B4614
:1056300083E803000022ADF80E2093E8030004ABDA
:105640000290ADF80C1013E9030004B000F066BD41
:10565000008800F00DBF000010B50446002839D0C6
:10566000031FDBB2A02B11D81B4B0146186801F0B9
:10567000C9F820B1204600F033FF00F0C5FF2046F6
:1056800000F026FFBDE8104000F0BEBF00F120038F
:10569000DBB2072B07D800F007040120A040C0B2FE
:1056A00000F04CFFEEE700F15B03DBB2022B05D804
:1056B0000A4ABDE81040D05CFFF710BF5834E4B28E
:1056C000162C07D8054B03EB4404A088BDE8104016
:1056D000FFF710BF10BD00BFE4010020C8BB0000F1
:1056E00008B5034648B3021FD2B2A02A05D800F07D
:1056F000F7FEBDE8084000F087BF00F12002D2B2FB
:10570000072A07D800F0070301209840C0B200F034
:105710001DFFEEE700F15B02D2B2022A04D800209E
:10572000BDE80840FFF7DABE5833DBB2162B04D8C9
:105730000020BDE80840FFF7DDBE08BD10B50446F7
:10574000FFF78AFF392C0CBF50200020002101F008
:1057500085FD2046BDE81040FFF7C2BF08B528B15F
:1057600000F0ECFEBDE8084000F04EBF08BD08B5F3
:1057700028B100F0EBFEBDE8084000F045BF08BDD1
:105780002DE9F04790F80690857807460C464FEAD9
:1057900019190DB100F0F8FE00F0C0FE8046A0B16E
:1057A0004DB3C4F3072303F0F003402B04D004F1FE
:1057B0002003DBB2072B1ED9022000F06BFF00F0A4
:1057C000ADFE80F001005FFA80F8C4F303330F2BC5
:1057D00045D8DFE813F01300130068006800C1002B
:1057E000440044004400D7002E013F013F019901CD
:1057F00044004400A2014FF00008E6E7C4F3072389
:10580000C4F3032613F0F00F18BF36015FFA84F9D2
:10581000A5B166B109F12003DBB2072B304602D9EE
:10582000B9F1000F07D100F089FE00F0EDFE484607
:10583000FFF712FF13E000F097FEF6E74846FFF788
:105840004FFF66B109F12003DBB2072B304602D9C6
:10585000B9F1000F24D100F079FE00F0D5FEC4F3B9
:105860000334083C032C03D8FFF728FEFEF79BFE09
:10587000B8F1000F00F0588100F048FE10F0010070
:1058800040F05281B87000F039FE00F055FD384606
:1058900000F05DF900F032FEBDE8F04700F056BDC3
:1058A00000F06AFED9E7C4F3072303F0F003C4F362
:1058B0000326202B5FFA84FA18BF3601BAF1000FD5
:1058C0000DD0BAF1010F2CD0BDB3B9F1000F2CD01F
:1058D000BB79D9072FD56FF30713BB7125E09DB1B5
:1058E000B9F1000F06D100F06BFE3043C0B2FFF7F4
:1058F00035FFB4E7B9F1010FF5D100F061FE304397
:10590000C0B200F069FEAAE7B9F1000F05D100F0BE
:105910006FFE3046FFF72BFFA1E7B9F1010F9ED0D4
:10592000F5E725B1B9F1050F99D83046DFE7B9F1B0
:10593000040F94D8EDE750467AE7B9F1000FE8D0AC
:10594000BAF1390F0CBF50200020002101F086FC75
:105950005046FFF7C5FE82E7C4F3812343B1012B14
:105960007FF47DAF65B1C4F30900FFF7C3FD76E7AF
:1059700025B1C4F30900FFF7B1FD70E72846FAE747
:105980002846F2E714F4407F25D1002D7FF467AF5D
:10599000E206C4F3421048BF0F254FEA800048BF1B
:1059A000854004F00F03C4F3812248BFED438340D8
:1059B000022A45EA030008D00AD8012A02D000F0E2
:1059C00091FC4CE700F086FC49E700F093FC46E7C9
:1059D00000F07DFC43E7C4F30122D3B2F5B102F03D
:1059E0000103002B3FF43BAFC4F34210830004F0EB
:1059F0000F0000FA03F214F010001CBF0F209840B3
:105A0000C4F3812318BFC043022B40EA02000AD02E
:105A10000CD8012B04D000F0B7FC20E75B08E0E7CE
:105A200000F0AAFC1BE700F0B7FC18E700F070FCE0
:105A300015E75FFA84F9C4F3032625B1304600F078
:105A40007BFC484653E74846FFF791FE304600F09E
:105A50007DFC04E7E6B2A6F1F003042B3CD8DFE8B6
:105A600003F00310171C250045B1B9F1040F3FF6F0
:105A7000F6AEC4F3042000F075FCF0E6B9F1050FB2
:105A8000F5E7C4F30420002DE1D000F055FCE6E674
:105A9000C4F30420002DF8D0D9E725B1C4F30420C5
:105AA00000F045FCDBE600F03FFCD8E64DB1C4F366
:105AB0000425284600F040FC0321284600F0D0FDD4
:105AC000CDE6012000F0E6FDB9F1010F7FF6C7AE8B
:105AD000022000F0DFFDC2E63DB1B9F1000F01D0B8
:105AE0003046A5E6C4F30420CFE7B9F1000F08D093
:105AF000392E0CBF50200020002101F0AFFB3046B2
:105B000027E7C4F30420A2E7C4F30322E1B2384636
:105B1000FEF79CFD00F06EFBA1E6C4F30322E1B2A8
:105B20003846FEF795FD9AE6BDE8F08738B504469D
:105B30000188807800F0A8FC054600F035FC00F0F4
:105B4000C5FB29462046BDE83840FFF719BE13B50E
:105B500083880288ADF804200446CBB1BDF8042048
:105B60004FF6FF739A4213D0FEF733FD50B900F0A1
:105B7000D5FC68B1A3785BB1022002B0BDE810404B
:105B800000F088BD2046FFF7D1FF2046FEF7E4FC79
:105B900002B010BD08B500F0F7FC00F00BFD00F0FE
:105BA00033FD0020FFF79AFC0020BDE80840FFF716
:105BB000A1BC08B500F09CFCBDE80840FFF7EABFB7
:105BC00008B500F0CBFCBDE80840FFF7F2BFC0F31A
:105BD00003330E3303F00F020D2A10B522D8012132
:105BE00001FA02F313F4105FC4B218D140F2033289
:105BF000134203D113F010000DD110BDF02C13D0BF
:105C000004D8E72C8CBF00200120F6E7F42C14BF49
:105C100000200120F1E7E72C06D9F12CF7E7C0F3CB
:105C2000C020EAE70020E8E70846E6E707B5ADF858
:105C30000400019800F01CFC03B05DF804EBFFF7D2
:105C4000C6BF82B002AB03E9030002B0704782B066
:105C500002AB03E9030002B07047000038B5094DFC
:105C60002C7895F84230A34200D138BD05EBC4032F
:105C70000134D3F80200D3F80610FFF7E8FF04F070
:105C80000704EEE7121D0020024B586C996CFFF7D9
:105C9000DEBF00BF121D0020F7B5234B93F84A204A
:105CA00012F0F00F09D193F8462032B11A784FF66E
:105CB000FF7693F84210914201D103B0F0BDB3F8E2
:105CC000480068B393F8441093F845408DF80410E9
:105CD0008DF80540BDF80450B54221D003EBC20554
:105CE000EF78A7421CD1AC788C4219D12979B9B987
:105CF000E988091A89B2C72912D893F84A100B48C3
:105D0000012262F3071183F84A102B7A62F307131A
:105D10002B72FFF71CFF03B0BDE8F040FFF79EBFFA
:105D2000013202F00702C4E7121D0020561D0020B8
:105D30002DE9F04FD14E8FB00446B6F848100068F8
:105D40000890B6F844002378627894F80280B4F89A
:105D50000490ADF8040096F844E096F845C0354646
:105D6000002900F01A8180B24FF6FF7B584500F001
:105D7000148196F84670002F00F00F81A9EB010105
:105D800096F84A0089B2C72900F0F00A00F2AE8006
:105D9000BAF1000F5ED18DF808E08DF809C0BDF8AA
:105DA00008105945C24620D08DF820308DF82120AA
:105DB000B6F84410BDF820C08C4516D1B8F1000FDC
:105DC00040F07981012363F3071086F84A00FFF75A
:105DD0005BFF06F14400FFF7BAFE96F84A30A37164
:105DE000002738460FB0BDE8F08FB9F1000F40F042
:105DF0006681B8F1000FF3D095F84A3043F0010303
:105E000085F84A30ECE705EBC10090F803C09445F3
:105E100006D190F802C09C4502D100790028DFD15C
:105E2000013101F007015CE110F4706F00D07BB12B
:105E30002033DBB2072B0BD92046FFF788FEBA468A
:105E400006E010F4706FF3D0A27912F0F00FEFD1EA
:105E50005746C6E78DF80CE08DF80DC0BDF80C1064
:105E6000594517D08DF820308DF82120B6F8441010
:105E7000BDF820C08C450DD1B8F1000F0AD1A0713A
:105E80002046FFF764FE236873646368B364FFF71A
:105E9000FBFEA6E78DF820308DF821200898FFF74B
:105EA000C5FEF8B1B8F1000F1CD095F84A301F2B91
:105EB0000DD9B5F84420ADF8282000228DF82A200D
:105EC000ADF82C908DF82E300AA8FFF740FE23681D
:105ED0006B4A6B6463685360FFF7DEFEFFF7D4FE26
:105EE00001277EE72046FFF732FEF9E7BAF1000FFF
:105EF00018D18DF820308DF8212008AB8DF8228044
:105F0000ADF8249093E8030006F14404FFF799FEEE
:105F10002046FFF71CFEC6F844A0C6F848A0FFF7CD
:105F2000B3FE95E78DF810E08DF811C0BDF81010A4
:105F3000594515D08DF820308DF82120B6F8441041
:105F4000BDF820C08C450BD1B8F1000F08D1A0716D
:105F50002046FFF7FCFDC6F84480C6F8488040E7BD
:105F60008DF820308DF821200898FFF75FFE00287B
:105F7000B8D0B8F1000FB5D095F84A301F2BA6D98C
:105F8000B5F84420ADF8302000228DF83220ADF86D
:105F900034908DF836300CA897E7002972D08DF830
:105FA00014E08DF815C0BDF814604FF6FF708642FE
:105FB00068D095F84670002F64D1A9EB010189B231
:105FC000C7294AD84746002F8CD08DF818E08DF8A5
:105FD00019C0BDF8181081422BD08DF820308DF8F3
:105FE0002120B5F84410BDF82000884221D195F851
:105FF0004A30234E13F0010F16D113F0F00F13D0D7
:1060000003F0F002F02A1CBFC3F303120132A371A4
:106010001CBF62F30713A3712046FFF798FD2368A6
:106020006B646368736032E723686B6463687360F2
:10603000D7E68DF820308DF821200898FFF7F6FD7F
:1060400000287FF444AF95F84A30204643F001031E
:1060500085F84A30FFF77BFDC3E68DF820308DF8D8
:10606000228008ABADF824908DF8212093E803003E
:10607000FFF7E7FD024B6F645F6008E7121D002029
:10608000561D0020B8F1000F3FF42CAF8DF82030E2
:106090008DF821200898FFF7C9FD074600283FF436
:1060A00021AF23681C486B6463684360FFF7D0FA34
:1060B000FFF7F2FDEBE6B9F1000F3FF49DAE8DF86E
:1060C0001C308DF81D20BDF81C004FF6FF71884272
:1060D0003FF48FAEB8F1000F7FF48EAE297895F8BB
:1060E0004260B1427FF48FAE8DF820308DF82120D0
:1060F000089800F0BDF9C0F30332C3B2032A3FF69B
:106100009BAE01A151F822F0295E0000295E00003B
:10611000435E0000435E0000561D002070B586B04F
:106120006D4685E803002846FFF702FE2F4C064621
:1061300088B1BDF80430BDF80020ADF8102043B19F
:1061400092B24FF6FF739A4203D095E80300FFF72F
:106150007EFD274D42E095E8030004AB83E8030091
:10616000BDF80420BDF81010ADF80C10002AF0D0D6
:1061700089B24FF6FF729142EBD094F84220217819
:10618000551C05F007058D420BD003CB04EBC20272
:1061900084F84250C2F80200C2F80610FFF75EFD14
:1061A000D7E7FFF70DFD234684F8426003F8446B00
:1061B00066645E60CDE705EBC000FFF7B9FD90B106
:1061C000237804EBC303D3F80200D3F80610FFF7DB
:1061D0003EFD2378013303F007032370207894F801
:1061E00042308342E7D106B070BD00BF121D0020CF
:1061F000141D0020F8B5034660B1002501261C4699
:1062000014F8010B732806D8042828D201280FD0CF
:10621000022827D0F8BD75283ED032D300F17C0388
:10622000DBB26F2BF6D800F07F00FFF759FA0EE0D3
:106230009C1C5B7803F12002D2B2072A0ED803F02F
:1062400007039840C0B200F0A5F900F0DDF92F4631
:10625000013FFFB2FF2F22D12346D0E71846FFF7B8
:10626000FBF9F4E758789C1C00F12003DBB2072B04
:10627000DBD800F0070006FA00F0C0B200F092F997
:10628000E3E75F789C1C013FFFB2FF2FDFD00120C6
:10629000002100F0E3FFF6E79C1C5D78D7E70120C2
:1062A000002100F0DBFFD3E7704708B5FFF7FCFFE4
:1062B00008BD000008B5FFF7F8FF034B1860BDE804
:1062C0000840FFF767BC00BF601D00207047FFF764
:1062D000F1BF0000024B1B681843FFF7EBBF00BF84
:1062E000601D0020024B1B681840FFF7E3BF00BF92
:1062F000601D0020024B1B685840FFF7DBBF00BF4A
:10630000601D0020FFF7D0BF08B5FFF7FBFF08BDF9
:1063100008B5FFF7F9FF034B5860BDE80840FFF7E9
:1063200039BC00BF601D00200020FFF7F1BF012332
:1063300003FA00F0FFF7ECBF012303FA00F0024B71
:106340005B681843FFF7E4BF601D0020012303FAD8
:1063500000F0034B5B6823EA0000FFF7D9BF00BFE2
:10636000601D0020012303FA00F0024B5B685840D7
:10637000FFF7CEBF601D0020024B5B681843FFF79C
:10638000C7BF00BF601D0020024B5B681840FFF7CD
:10639000BFBF00BF601D0020024B5B685840FFF785
:1063A000B7BF00BF601D002070470000C0F3072387
:1063B00037B500EBC30000F0FF0000F00703012237
:1063C0009A40C0080A4B00EB8000D2B21844002467
:1063D000057821FA04F343F300036B4013400134C2
:1063E0006B40052C00F8013BF2D103B030BD00BF7B
:1063F000681D0020C0F3072313B500EBC30000F0B5
:10640000FF0000F007040A49C00800EB80000022EA
:106410000144104611F8013BE34003F001039340AF
:1064200001321843052AC0B2F4D102B010BD00BF3A
:10643000681D002073B50D4BADF80400D3E900369C
:106440001F241E4326FA04F3DB07E5B206D414F139
:10645000FF34F7D20025284602B070BD01992846C6
:10646000FEF70EF980B20128F1D0F4E7601D00209C
:1064700007B5ADF804000198FFF7DCFF019903B000
:106480005DF804EBFEF7FCB813B5104BADF8041043
:106490001B782BB1019802B0BDE81040FFF7E8BFB0
:1064A00070B10198FFF7C6FF044601460198FFF757
:1064B0007DFF0199204602B0BDE81040FEF7E0B82C
:1064C0000198FFF797FF0446F3E700BF101D002077
:1064D000024B0146186800F0FDB900BFE40100203E
:1064E000024B0146186800F00FBA00BFE40100201B
:1064F000014B186800F022BAE4010020024B93F926
:106500000100C0F3C70070479F1D0020024B587860
:1065100000F00700704700BF9F1D0020034B587814
:1065200010F0070018BF0120704700BF9F1D00201A
:10653000014B9878704700BF9F1D0020024A937856
:1065400018439070704700BF9F1D0020024A937847
:1065500023EA0000907070479F1D0020014B00222D
:106560009A7070479F1D0020024AD3781843D0705C
:10657000704700BF9F1D0020024AD37823EA000025
:10658000D07070479F1D0020014B0022DA707047C9
:106590009F1D0020024A137918431071704700BFF5
:1065A0009F1D0020024A137923EA000010717047F2
:1065B0009F1D0020014B00221A7170479F1D002073
:1065C000014B5879704700BF9F1D0020704708B5E8
:1065D000FFF7FCFF08BD000008B5044B5979814264
:1065E00002D05871FFF7F3FF08BD00BF9F1D0020C8
:1065F00008B5044B5A791AB100205871FFF7E7FF2C
:1066000008BD00BF9F1D002010B5104B104A19682F
:10661000907808701868D478017821430170186860
:10662000147901785279214301701C464AB11B68E4
:1066300019780A431A70206800F0C6F808B1FFF70D
:10664000D7FF2068BDE81040FEF740BFE4010020FE
:106650009F1D0020704708B5FFF7FCFF08BD000034
:1066600010B5064C41EAC0016170FFF765FE94F970
:106670000100C0F3C700FFF7EEFF10BD9F1D002013
:1066800008B5034B00205870FFF7E5FF08BD00BFB9
:106690009F1D002008B50A4A92F9013023EA000044
:1066A00040B2507042070AD1DBB2834207D0C0F338
:1066B000C700FFF74BFEBDE80840FFF7E1BF08BD8C
:1066C0009F1D002008B50020FEF786F94FF6EC6309
:1066D000C31A5842584108BD0220FEF777B903207B
:1066E000FEF774B910B50420FEF770F904462120B6
:1066F000FEF76CF944EA002080B210BD10B5C1B2BB
:1067000004460420FEF7A2F9210A2120BDE810402A
:10671000FEF79CB901460F20FEF7A0B901461320F1
:10672000FEF79CB90020FFF7F9BF08B50020FFF77E
:10673000F1FFFFF7F7FF08BD10B54FF6EC61002041
:10674000FEF78AF900210220FEF780F900210320DC
:106750000024FEF77BF9184B214604201C60FEF74D
:1067600075F921462120FEF771F921460520FEF733
:106770006DF921460620FEF769F9FF210720FEF793
:1067800065F921460820FEF769F921460D20FEF73C
:106790005DF921461820FEF761F921461720FEF722
:1067A00055F921461C20FEF759F921462020FEF715
:1067B0004DF9FFF7BAFF10BD601D0020FFF7BCBF09
:1067C00001460E20FEF742B90C4B1B78821C5BB1D0
:1067D0000B4B93F90030002B06DA421C1F231344A5
:1067E00000209A4202D170470623F8E712F8011BF5
:1067F0000029F6D00130C0B2F3E700BF74160020C4
:1068000006210020F1B1114B1B789BB1104B93F97D
:106810000030002B0EDACA081F2A13D010440123BF
:1068200001F0070103FA01F14378194214BF012076
:1068300000207047831C083013F8012B8A4203D0D4
:106840008342F9D100207047012070477416002060
:106850000621002030B54FF0FF33851C002215F8CB
:10686000014B8C420ED0B3F1FF3F02D1002C08BF88
:1068700013460132D4B2062C62B2F0D15A1C01D0B8
:106880001844817030BD10B5831C0022083013F805
:10689000014B8C4208BF03F8012C8342F7D110BD95
:1068A000CB081F2B07D0184401F0070301219940A2
:1068B0004378194341707047CB081F2B08D0184408
:1068C00001F0070101238B40417821EA0301417067
:1068D0007047000010B40A4C247803460A4644B1BD
:1068E000084C94F90040002C03DA5DF8044BFFF7E4
:1068F000D7BF114618465DF8044BFFF7ABBF00BF8A
:10690000741600200621002010B40A4C2478034697
:106910000A4644B1084C94F90040002C03DA5DF8B3
:10692000044BFFF7C9BF114618465DF8044BFFF74B
:10693000AABF00BF7416002006210020084B1B7858
:106940004BB1084B93F90030002B04DA1F220021D1
:10695000013004F027BF0023C0F80230C380704725
:1069600074160020062100207047704708B5FFF715
:10697000FCFF08BD08B5002001F062F9FFF7F6FF43
:1069800008BD704710B5FFF7EFFFFDF7FFFCFFF7FD
:10699000F8FF0024E0B2FDF79DFD18B901340B2C7F
:1069A000F8D110BD0120FCE7704708B5FFF7FCFFE8
:1069B00008BD08B5012001F043F9FFF7F6FF08BD57
:1069C000024BD3E9000180B2704700BF882100204C
:1069D000014BD3E90001704788210020014BD3E926
:1069E0000001704788210020024BD3E90023101AD0
:1069F00080B2704788210020024BD3E90023101A8F
:106A0000704700BF88210020024B00200021C3E90D
:106A10000001704788210020FFF7F6BF70B5294BB1
:106A200088B001AA03F1180614461868596815467B
:106A300003C50833B3422A46F7D11B882B8042F2A4
:106A4000A012234613F8011B59B31078884226D0B0
:106A50001D4B1A786FF341021A701A469168880725
:106A6000FCD41A78C2F34002002AFAD1597862F3B2
:106A700007115970597862F303015970997862F3DC
:106A8000030199701A7842F002021A700E4B1A46EE
:106A900099688907FCD413789B07FCD5FEE701327F
:106AA000D0E70A4B0A4A1A60BFF34F8F09490A4BD5
:106AB000CA6802F4E0621343CB60BFF34F8F00BF9C
:106AC000FDE700BFFABB000000200040FCFF0120F2
:106AD00000CA9A3B00ED00E00400FA0508B5FFF794
:106AE000F1FD08B9FFF76AFEFFF7F6FD054B1870D8
:106AF000FFF7F8FD044B1880FFF7F1FDBDE80840F3
:106B0000FFF7E5BBC51D0020062100200C490D4AFA
:106B10004F230B60136A43F0800313620A4BD3F8D0
:106B20002021012060F30302C3F82021D3F82021A3
:106B300042F04002C3F8202150230B60704700BF91
:106B40009021002000080040001C0040534A10B56E
:106B500051231360524B01200221C3F88400C3F873
:106B600084100421C3F8841093F8B01060F303017B
:106B700083F8B01093F8B01060F3071183F8B010E9
:106B800093F8B11060F3030183F8B11093F8C010CB
:106B9000014383F8C01093F8C110014383F8C1107A
:106BA00093F8C210014383F8C2103E4B1988014389
:106BB00019805220196BCC0751D43A4B53201988B5
:106BC00011F001014DD1188861F30A201880997ADB
:106BD000022060F303019972324B5420196B89062D
:106BE00041D4997A11F00F003FD1997A60F30611E0
:106BF00099722C4955200B6B9C0648D4CB7A2D20DA
:106C000060F30503CB72274B5620196B490640D41D
:106C10004FF08011B3F848000968C1F3820464F3AF
:106C20000200A3F84800B3F84800C1F3022464F35B
:106C30000610A3F84800B3F84800C1F3421161F30D
:106C40000A20A3F84800198841F00201198015496B
:106C500057200B6B9B071ED45823136010BD106088
:106C6000A8E71060ABE71060B8E7987A00F00F0073
:106C70000128BAD0987A00F00F000228B5D0987A8F
:106C800000F00F000328B0D0997A0420AEE710601E
:106C9000B1E71060B9E71060DBE700BF902100208A
:106CA00000800041001C00430B4B9A8860F30402F3
:106CB0009A801A6B5007FCD41A7D42F002021A75B2
:106CC000054A1346116B0905FCD493F82E20D20710
:106CD000FBD5B3F840007047001C004310B5514A83
:106CE000514932231360514B0B600B680B62504BC0
:106CF00058696FF34100586158690D2464F31750C7
:106D00005861586940F4004058615869052464F39B
:106D1000CE205861586940F4C060586158696FF3DB
:106D2000C7105861586940F004005861586940F034
:106D30000200586133241869C00764D53D480865CE
:106D400093F830006FF3410083F83000384B34245F
:106D5000D86B800759D4986B022464F3471098636A
:106D6000986B072464F31A409863586B2F2464F3DC
:106D70000C0058632E4B3520DC6BC4F38004002CD0
:106D800045D193F8300064F3C71083F8300093F8CE
:106D9000300040F0020083F8300025483624C36BF1
:106DA0009B0736D422483724036CDB0733D5204CAD
:106DB0003820236C9B0730D5086DA36B646BC3F33D
:106DC0000A43C4F30C0440080133B0FBF3F304FBA3
:106DD00003334B60184B186A072464F303001862EE
:106DE0003924586840071AD44B680B620B6A134960
:106DF0008B42134986BF1348B3FBF0F301230B60AA
:106E00003A23136010BD146095E71460A0E710608A
:106E1000B2E71460C3E71460C6E71060C9E7146006
:106E2000DFE700BF902100201C210020006CDC0265
:106E3000001000400024F400001C0040BFC62D00DC
:106E400018210020C0C62D002C4B222270B51A60DC
:106E50002B4A23245568C5F38B05002D43D100F13F
:106E60000805072452F8256064F30306244C42F811
:106E7000256024266268C2F38B02002A35D1800087
:106E8000204A00F1804000F5E0505468B4FBF1F472
:106E9000E4B244841A4C25266168C1F38B0131BBEE
:106EA00054F8256061F30C36154944F82560262610
:106EB0004C68C4F38B04E4B951F8254044F4807461
:106EC00041F825400E4C27266168C1F38B0191B92A
:106ED0005168408CB1FBF0F142F82510282119606F
:106EE00052F8250070BD1C60B4E71E60C2E71E604A
:106EF000D2E71E60DCE71E60E6E700BF90210020BD
:106F0000001C00401C210020204B214929221A602E
:106F10002A204A68C2F38B02002A2DD1486A62F304
:106F200003001B4A48622B205168C1F38B0129BB27
:106F3000516AC0F20101516215492C204A68C2F31E
:106F40008B02EAB9486A62F30C30114A48622D207C
:106F50005168C1F38B01A9B9516A41F48071516242
:106F60000B492E204A68C2F38B026AB9094A116D97
:106F700051622F221A6070471860CAE71860D3E781
:106F80001860DBE71860E3E71860EBE7902100206A
:106F9000001C00401C2100201D4B1E4A0021002027
:106FA000C3E90001302313601B4B19686FF34101E3
:106FB00019601969C1F340010029FAD1174B18680B
:106FC00061F3410018601969C1F340010029FAD149
:106FD000114B99821969C1F300110029FAD10F4BA5
:106FE00059611969C906FCD4196841F00201196098
:106FF0000A490B699807FCD4074B196841F0020154
:10700000196019698907FCD431231360704700BFE8
:107010008821002090210020001400420038004008
:1070200030B5074B9A7AD20609D5102205499A72D3
:10703000D1E90023541C43F10005C1E9004530BDEE
:10704000001400428821002038B5744C744909238B
:1070500002202360FFF7F8FEFFF756FF714AD3695D
:1070600043F02003D361704BD3F8F820022161F381
:107070000302C3F8F820D3F8F82042F04002C3F826
:10708000F8200D232360694B1A686FF341021A60E0
:107090000E211A69920700F1B1801A6842F00102CC
:1070A0001A60624A0F211369DB0700F1A9805F4B68
:1070B00010211A68D50700F1A58005221A715B4BD3
:1070C00011211A69500700F19F8040F2E7329A833C
:1070D000564B12211A69C2F38012002A40F09680A2
:1070E000197B012060F301011973D98841F48051A3
:1070F000D9804F494FF40040C860597A41F01001DF
:1071000059724849132323604B6943F480434B6110
:10711000454BD3F8A400022565F30300C3F8A4008F
:10712000D3F8A40040F04000C3F8A400486940F43C
:1071300000404861D3F8A41065F30301C3F8A4101C
:10714000D3F8A41041F04001C3F8A4101A2323601F
:10715000384B196862F3410119601B211A699207C3
:1071600056D41A6842F001021A60324A1C2113698F
:10717000DB074FD42F4B1D221D6815F001054BD1A5
:107180001968022262F383011960D98841F0200155
:10719000D980D98862F30201D9801E232360214956
:1071A0001F2323608B6943F080038B611E4BD3F850
:1071B000AC1062F30301C3F8AC10D3F8AC2042F07A
:1071C0004002C3F8AC201C4B0121C3F8D0111A6A4D
:1071D00061F38B221A621A6A65F309221A621A6A2B
:1071E000562161F306021A6220232360FFF7D4FEC2
:1071F000FFF78CFC21232360284638BD216048E737
:10720000216050E7216054E721605AE7216061E77F
:107210002160A3E72160AAE72260ADE7902100206A
:1072200040420F0000080040001C004000140042D3
:1072300000E100E00038004000E0004100000000F4
:1072400040B1054B1B685843AFF30080AFF300809B
:107250000138FDD1704700BF18210020F8B506465F
:107260000F46FFF7BBFB841941EB0705FFF7B6FBA1
:10727000A94208BFA042F9D3F8BD0000032813D8E3
:10728000DFE800F002080D130A4A536943F4805303
:1072900053617047074A536943F40053F8E7054ABE
:1072A000936943F4007393617047024A936943F40E
:1072B0008063F8E700080040F8B51E4F1E4E072314
:1072C00056F820503B600446FFF7D8FF06441B48A1
:1072D000327E203250F822306FF3030340F8223020
:1072E00050F8223043F0400340F822302B6843F03E
:1072F00001032B603846EB69DA07FCD42B68DB0707
:10730000FCD40F4A136A5B08B3FBF1F3013BDBB219
:107310002B73136A297B0234013102EB84045B086E
:10732000B3FBF1F35365536D636008230360506D45
:10733000F8BD00BF9021002014BC0000001C0040DC
:107340001C210020F8B5204F204E052356F8205070
:107350003B600446FFF792FF06441D48327E203210
:1073600050F822306FF3030340F8223050F82230F7
:1073700043F0400340F822302B6843F001032B60B8
:107380003846EB69DA07FCD42B68DB07FCD4114ADA
:10739000136A5B08B3FBF1F3E968013BDBB263F30B
:1073A0000701E960136AE9680234C9B2013102EBEE
:1073B00084045B08B3FBF1F39365936D636006236C
:1073C0000360906DF8BD00BF9021002014BC000048
:1073D000001C00401C210020F8B5204F204E032344
:1073E00056F820503B600446FFF748FF06441D480E
:1073F000327E203250F822306FF3030340F82230FF
:1074000050F8223043F0400340F822302B6843F01C
:1074100001032B603846EB69DA07FCD42B68DB07E5
:10742000FCD4114A136A5B08B3FBF1F3E9680A3B29
:10743000DBB263F30701E960136AE9680234C9B299
:107440000A3102EB84045B08B3FBF1F3D365D36D1F
:10745000636004230360D06DF8BD00BF902100205D
:1074600014BC0000001C00401C21002010B5074C7B
:107470000748012368220021236004F093F9FFF7F5
:107480002DFCFFF7E1FD0223236010BD90210020B9
:107490001C21002009282DE9F04345D9632845D94E
:1074A000B0F57A7F44D342F20F73984242D94E4BE3
:1074B000984241D94D4B984240D94D4B98423FD9C3
:1074C0004C4B98423ED94C4A904294BF0822092224
:1074D0004A4CDFF83CC1DFF83CE115460A272E464E
:1074E000012316F1FF362FD2B0FBF3F8834203FBE2
:1074F0001806434B2AD840464FF00069002841D077
:10750000C4F81890C3F800C0D3F80080B8F1000F99
:1075100056D1C4F81490C3F800E0D3F80080B8F155
:10752000000F54D10138E9E70022D1E70122CFE76B
:107530000222CDE70322CBE70422C9E70522C7E7F1
:107540000622C5E70722C3E77B43CAE74FF0006086
:10755000A0612C481860186830BB4FF00060606173
:1075600028481860186810BB4FF00060A0612548DB
:1075700018601868F0B94FF0006060612148186029
:107580001868D0B920481860186838BB013A52B260
:107590003046561C05F1FF35A1D119B11B4A1A60BE
:1075A0001A68F2B9BDE8F08318680138D2E71868A4
:1075B0000138D6E718680138DAE718680138DEE7DD
:1075C000D3F8008008F1FF38C3F800809CE7D3F8B7
:1075D000008008F1FF38C3F800809EE71868013882
:1075E000D1E71A68013ADAE79F8601003F420F00AF
:1075F0007F969800FFE0F505FFC99A3B00800041A7
:10760000C81D002090D0030060E31600808D5B0051
:1076100040420F0020A1070008B5034C206801215B
:10762000FFF738FFFAE700BF90210020214B00212F
:107630001960214B4FF40002C3F88420C3F898204E
:1076400093F8D72042F0020283F8D72093F8D7208E
:1076500042F0040283F8D72093F8D72042F00102C9
:1076600083F8D72093F8BB2061F3071283F8BB207F
:10767000124A536943F480635361114B1A7842F004
:1076800001021A705A68D207FCD480229A611A61EA
:10769000DA6942F00052DA611A7842F002021A7096
:1076A000074A53689B07FCD4064B4FF400221A602C
:1076B000704700BF9021002000800041000800407A
:1076C0000028004000E100E01B4B4FF40022C3F80B
:1076D0008020BFF34F8FBFF36F8F184B1A786FF373
:1076E00041021A705A68C2F34002002AFAD1144BC0
:1076F0004FF40001C3F88410C3F8941093F8D71026
:1077000062F3410183F8D71093F8D71062F3820136
:1077100083F8D71093F8D71062F3000183F8D710DD
:1077200093F8BB1062F3071183F8BB10054B59693E
:1077300062F38A215961704700E100E000280040AF
:10774000008000410008004010B5294C2949592308
:1077500000202360FFF7F6FD274B93F83420022129
:1077600061F3030283F8342093F8342061F30712A5
:1077700083F8342093F8482042F0010283F848202F
:1077800093F8492042F0010283F849201B4B1A6804
:10779000052161F384021A601A686FF319621A6096
:1077A0001A6842F080021A601A6842F002021A60F7
:1077B0005A202246D969890713D4598B012060F3D6
:1077C000051159830D495B20CB695B070BD40B492D
:1077D0005C204B8BC3F30113012B06D15D23136097
:1077E00010BD1060E6E71060EEE71060F1E700BF43
:1077F00090210020A0860100008000410030004060
:10780000084B5A6A60F30A025A62DA695107FCD4DB
:107810001A7ED207FCD5034A538B5B07FCD40120A8
:10782000704700BF00300040104B5A8B110607D440
:107830001A7ED20704D45A8BC2F30112012A14D043
:107840005A6842F440325A60084A1346D1694807E0
:10785000FCD45A8B1106FCD41A7ED207FCD4034AFE
:10786000538BC3F30113012BFAD170470030004052
:1078700038B50D461446AAB1FFF7C2FF0A4B691E80
:107880001A4611F8010F9862107EC507FCD5508B7F
:107890004007FCD4013CA4B2002CF2D1FFF7C4FF96
:1078A000012038BD1046FCE70030004010B52F4CD9
:1078B0002F495E2301202360FFF78EFD2D4B93F8A7
:1078C0003820022161F3030283F8382093F838202E
:1078D00061F3071283F8382093F8502042F0010238
:1078E00083F8502093F8512042F0010283F8512090
:1078F000214B1A68052161F384021A601A6801217C
:1079000061F319621A601A6842F080021A605A68BC
:1079100042F480725A60194A4FF4802151609A7D76
:1079200042F080029A751A6842F002021A605F20E3
:107930002246D969890713D4598B012060F30511B8
:1079400059830D496020CB695B070BD40A4961203C
:107950004B8BC3F30113012B06D16223136010BDBF
:107960001060E6E71060EEE71060F1E7902100207C
:10797000A0D90800008000410034004000E100E090
:10798000084B5A6A60F30A025A62DA695107FCD45A
:107990001A7ED207FCD5034A538B5B07FCD4012027
:1079A000704700BF00340040104B5A8B110607D4BB
:1079B0001A7ED20704D45A8BC2F30112012A14D0C2
:1079C0005A6842F440325A60084A1346D16948075F
:1079D000FCD45A8B1106FCD41A7ED207FCD4034A7D
:1079E000538BC3F30113012BFAD1704700340040CD
:1079F00038B50D461446AAB1FFF7C2FF0A4B691EFF
:107A00001A4611F8010F9862107EC507FCD5508BFD
:107A10004007FCD4013CA4B2002CF2D1FFF7C4FF14
:107A2000012038BD1046FCE70034004013B5084B78
:107A3000084C1B88ADF8043040F2E1135843022291
:107A4000002301A9205CFFF7D3FF02B010BD00BFE7
:107A500032BC00009521002013B5FD238DF80430C1
:107A600040F2E1135843054C8DF805100023022223
:107A700001A9205CFFF7BCFF02B010BD95210020DA
:107A800013B50A438DF80520084A094C12788DF881
:107A9000062040F2E11250430023032201A9205C9A
:107AA0008DF80430FFF7A4FF02B010BDBD26002002
:107AB0009521002013B50F238DF8043040F2E11317
:107AC0005843064C8DF805108DF80620002303223C
:107AD00001A9205CFFF78CFF02B010BD95210020AA
:107AE00010B51F4C1F4A65232360A52313701E4A3F
:107AF00013701E4A00201370FFF798FF0321002027
:107B0000FFF7AAFF002101220846FFF7B9FF012075
:107B1000FFF78CFF03210120FFF79EFF0122104693
:107B20000021FFF7ADFF0020FFF780FF03210020B9
:107B3000FFF792FF052211460020FFF7BBFF01204F
:107B4000FFF774FF03210120FFF786FF052211468E
:107B50000120FFF7AFFF66232360012010BD00BFA7
:107B600090210020BD260020BE260020BC2600203B
:107B70002E4967230B602E4B1A886FF341021A803F
:107B80001A889207FCD41A8842F001021A80284B06
:107B90001A8812F00102FBD12648586326489863E0
:107BA000188840F470601880186C62F34100204A15
:107BB00018641346106C8007FCD4106C40F0010070
:107BC00010641A6C12F00102FBD1186C62F31D7084
:107BD0001864186C62F31B6018641A6C022060F35E
:107BE00015521A641A6C072060F30E221A641A6C7C
:107BF00042F040021A64114A4FF00040106093F8BE
:107C00004D2042F0020283F84D2093F84D2042F0BF
:107C1000010283F84D201A8842F002021A80044AB9
:107C200013889B07FCD568230B60704790210020C8
:107C300000A00041C02000208020002000E100E0E2
:107C400010B5084C6923421E2360074B5042504137
:107C50001A7860F304121A7000F072FD6A23236030
:107C600010BD00BF90210020C026002010B50C4C94
:107C7000632300202360FFF7E3FF01200021FFF7CB
:107C8000EDFA084B1A786FF345121A7000F058FDA0
:107C900001200021FFF7E2FA64232360012010BDD8
:107CA00090210020C0260020104B1A886FF34F321D
:107CB0001A801A886FF30C321A801A886FF3CB225D
:107CC0001A801A8842F480621A801A886FF3092297
:107CD0001A801A886FF3C4021A801A886FF342025E
:107CE0001A801A8842F001021A807047C0200020D2
:107CF00008B5FFF7D9FF054B8AB25A800844044AF9
:107D000058609A600022DA6008BD00BFC0200020E1
:107D100028340040094A136C43F002031364084BF3
:107D200040F2E1125988074B5043074A1B5C43EA73
:107D3000014343F400535362704700BF00A0004169
:107D4000C0200020952100200034004010B50446DA
:107D50000648FE2303700221C5234370FFF7C8FFC6
:107D60002046BDE81040FFF7D5BF00BFCC1D002066
:107D700010B504460548FD23417002210370FFF74A
:107D8000B7FF2046BDE81040FFF7C4BFCC1D002060
:107D900010B50446064801230370064B02211B78E8
:107DA0004370FFF7A5FF2046BDE81040FFF7B2BFC4
:107DB000CC1D0020BD26002038B50B490B4B0446D6
:107DC000C12540F2E11000FB04112A46184603F0D9
:107DD0004FFC002229460270FFF78AFF2046BDE8CB
:107DE0003840FFF797BF00BFE1210020CC1D0020E5
:107DF0000E4A38B540F2E11303FB00230C4A044657
:107E0000114603F1180053F8045B42F8045B834207
:107E1000F9D11B78137000230B7005481921FFF767
:107E200067FF2046BDE83840FFF774BF9621002069
:107E3000CC1D002010B5084C6422002104F1FF0085
:107E400003F0B0FC054A0023137084F8633184F812
:107E5000643184F8653110BDCC1D002094210020D0
:107E6000044B93F8630193F86431C31A58425841A4
:107E7000704700BFCC1D0020064B93F8640193F8B7
:107E800063316422C01A90FBF2F302FB1300C0B20C
:107E9000704700BFCC1D002008B5FFF7EDFFC0F113
:107EA0006300C0B208BD0000074A92F86431D118DF
:107EB000013381F8FF006420B3FBF0F100FB1133C4
:107EC00082F86431704700BFCC1D0020054991F84D
:107ED000633164200133B3FBF0F200FB123381F80D
:107EE00063317047CC1D002008B50146FFF7D4FF71
:107EF00088420D4A11D292F865310133DBB2632B0F
:107F000082F865310DD9094B4FF000629A61FFF795
:107F10002FFEFFF78FFF012008BD002382F8653197
:107F2000F9E70020F8E700BFCC1D002000800041E9
:107F300038B5FFF795FF2B4B10B10020187038BDF6
:107F40001A780120002AFAD1274C187094F863316E
:107F5000234493F8FF30652B0CD1FFF7B7FF94F85B
:107F600063311C4494F8FF00FFF7F0FEFFF7AEFF0B
:107F70000120E4E7662B11D1FFF7A8FF94F86331E5
:107F8000234493F8FF50FFF7A1FF94F863311C449A
:107F9000284694F8FF10FFF7EBFEE7E7672B09D1BF
:107FA000FFF794FF94F863311C4494F8FF00FFF747
:107FB00003FFDBE7682B09D1FFF788FF94F86331F3
:107FC0001C4494F8FF00FFF7E3FECFE7692BCDD107
:107FD000FFF77CFF94F863311C4494F8FF00FFF72F
:107FE00007FFC3E794210020CC1D0020762830B580
:107FF00006DC044D00EB40002C182A546170A3707D
:1080000030BD00BF57250020F8B5324B1B78DB068A
:108010005ED5314A137803F0FF04002BFAD12F4AC2
:108020002F4B214650685D78057090681D7805706B
:10803000D0689D7805700131772902F12C0203F197
:108040000303EFD1274F284E3878317888421CD06F
:1080500000250720FFF748FFA0B16520FFF724FFA8
:108060002846FFF721FF6620FFF71EFF2846FFF78F
:108070001BFF0320FFF718FF6820FFF715FF2846B6
:10808000FFF712FF05B33B7833700720FFF72CFF93
:10809000A0B16520FFF708FF2046FFF705FF662027
:1080A000FFF702FF2046FFF7FFFE0120FFF7FCFE6F
:1080B0006720FFF7F9FE2046FFF7F6FE012C05D1F9
:1080C000BDE8F840FFF734BF0125C2E70124DCE733
:1080D000F8BD00BFC026002094210020E801002048
:1080E00057250020BD260020BE260020054B10B5D8
:1080F00000240134772C587019709A7003F103032F
:10810000F7D110BD57250020034B1A7ED2091CBFA2
:1081100080221A76704700BF0034004008B50C4B2F
:1081200093F84E2091070BD5022283F84E20FFF7DB
:108130003BFC084B00221A70BDE80840FFF7F8BE70
:1081400093F84E20D20744BF012283F84E2008BD89
:1081500000A000419421002038B52F4B2F4C1A88E5
:1081600040F697039A420BD80020FFF769FD1423CD
:1081700023702B4B00221A702A4B01221A7038BD33
:108180002078012802D901382070F8E707D1FFF7DD
:1081900057FD254800F0BAFE00232370EFE7214881
:1081A000224B1F4A00781978137878B1204800884C
:1081B000B0F51B6F15D340F6EC15A84201D98B42E0
:1081C00006D38B420DD800236370D8E78B42F9D2D7
:1081D000C3F1A5010129C6BF0233DBB2A523137089
:1081E000F1E7012B15D8134B1B780025012B1570D7
:1081F000C5D163780133DBB2C82B6370BFD90320CC
:1082000001F016FB0C4B0D481D70BDE8384000F026
:108210007DBE023BE3E700BF10210020321F00209B
:10822000BD2600201227002044BC0000BC260020F0
:108230001221002035270020362700206CBC0000CA
:10824000354B2DE9F04740F2C2320021184603F0C9
:10825000A9FAA0220270314CBE2280F8E12100254B
:1082600040F2E1170126227C94F8139094F811A0B3
:1082700094F812C0217D013A7A4302F14C0809F1C9
:10828000FF3980440AEB091343440CF1FF3CA3601F
:108290000AEB0C13434401F1FF3E63600AEB0E113D
:1082A0000AF1FF334144002BE1601946B8BF0AF1DF
:1082B0000601C910D3F1000801EB490902F10102DE
:1082C000024409F1010908F0070803F0070358BF49
:1082D000C8F1000306FA03F312F809805BB243EA1F
:1082E000080801EB4C0C02F809800CF1010C01EBC1
:1082F0004E0112F80C8043EA080802F80C800131A4
:10830000013512F801C0772D43EA0C03535404F1F0
:108310002C04A8D1BDE8F08795210020E8010020B9
:108320000022074B11465868017098680170D868A0
:108330000132772A017003F12C03F4D1704700BF9A
:10834000E801002010B5074C6B232360FFF778FF8E
:10835000FFF7E6FF044B00225A701A706C2323606B
:1083600010BD00BF90210020321F002038B500F062
:108370002DF8B0B1124B1B789B0712D01149124B4C
:1083800000F00405002200F0020091F82840182CAB
:1083900008D158B90132772A01F12C0103F1030306
:1083A000F3D138BD362CF5D1002DF3D05C78E44301
:1083B0005C701C78E4431C709C78E4439C70E9E793
:1083C000D0200020E801002057250020044B93F91D
:1083D0000030002BB4BF034B034B1878704700BF2D
:1083E000062100200C2700201027002070470000E5
:1083F00010B5EFF3108472B6BFF35F8F064B1870A1
:10840000A3F80110054B01221A7000F023FFBFF3FF
:108410005F8F84F3108810BD08270020E22600201B
:1084200001460320FFF7E4BF01460420FFF7E0BF49
:1084300070B54FF082435C7BE4B2042C0CD11E4B30
:108440001E4D00200021C3E900012B78042B02D02F
:10845000FEF790FA2C7070BD082C08D1164B174D02
:1084600000200021C3E900012B78082BEFE7022C44
:108470001CD1124E3378022BEDD00F4DD5E90023DD
:10848000134307D1FEF7AAFAFA3041F10001C5E91A
:108490000001E0E7FEF7A2FAD5E900238B4208BF0E
:1084A0008242D8D2FEF785FA3470D4E7024B00201E
:1084B0000021C3E90001CEE7381F00205C16002030
:1084C000F8B51F4CFEF78AFAD4E902238B4208BFA5
:1084D00082422CD2FEF782FA053041F10001C4E954
:1084E00002010C20FEF7E0FB164C174B05461880E6
:1084F000208802F07BFC0EA3D3E9002302F0E0FC0D
:10850000064628460F4602F071FC0BA3D3E9002370
:1085100002F0D6FC0B4602463946304602F01AFB02
:1085200002F0E0FE2080BDE8F840FFF715BEF8BD80
:10853000CDCCCCCCCCCCEC3F9A9999999999B93FB8
:10854000381F0020122100201021002010B50A4CF5
:10855000FEF744FAD4E904238B4208BF82420AD2D0
:10856000FEF73CFA0A3041F10001C4E90401BDE81C
:10857000104001F09DB910BD381F002008B5FFF76D
:1085800057FFFFF79DFFBDE80840FFF7DFBF000082
:1085900038B51D4B1B78DB09044617D01B4D2B78D3
:1085A00073BBEFF3108572B6BFF35F8F184B204695
:1085B00004F1200250F8041B43F8041B9042F9D147
:1085C000144B01221A7000F005FE11E0124D2B78B9
:1085D0009BB9EFF3108572B6BFF35F8F0F4A236824
:1085E0001360636853600E4B01221A7000F0B6FDF1
:1085F000BFF35F8F85F3108838BDFFF7BFFFE6E755
:10860000FFF7BCFFCBE700BF06210020E3260020D8
:10861000E8260020D4260020E1260020D8260020CD
:10862000E026002038B5414C414D4FF00063A36077
:108630000823C4F88830C4F894304FF40033C4F8E9
:108640008830C4F894304FF48013A3606361FEF760
:10865000EDFFFEF70BFFFEF779FA00F0A3F8FFF746
:1086600025F9FBF729FE00F071FE7A232B6000F05C
:1086700013FA7B232B607C232B6000F049FC7D23C5
:108680002B6001F089F80028FBD04FF00063636194
:10869000FFF7ECFA0128FBD1FFF722FA0128FBD102
:1086A000FFF766FAFFF7C6FB00240720FFF71CFC64
:1086B000A0B16520FFF7F8FB2046FFF7F5FB662029
:1086C000FFF7F2FB2046FFF7EFFB0020FFF7ECFB84
:1086D0006920FFF7E9FB2046FFF7E6FB04B3FCF750
:1086E00020FFFCF72AFF1348134CFCF7E1FE0C2097
:1086F000FEF7DAFA114B1880FEF7E6FFFFF73EFFB0
:108700002378042B01D0082B0CD1FEF73BF900286D
:10871000F4D002F0A9F932200021FEF79FFDEDE729
:108720000124C2E7FCF714FFE8E700BF0080004126
:1087300090210020601600205C16002012210020ED
:10874000144B15494FF4804210B5C3F89420134AD6
:108750003C20137EDC0717D5114B0F481B88D9B27C
:1087600091620E4A3D24117E89070FD51B0A936240
:1087700009490A4A3E20137E9B0709D5054B4FF451
:108780008042C3F8982010BD0860E2E70460EAE781
:108790000860F0E7008000419021002000200141A6
:1087A000C026002038B52F4C2F493B2302202360E0
:1087B000FEF782FD2D4B4FF480414FF40040C3F88B
:1087C0008810C3F8880093F83620022565F3030269
:1087D00083F8362093F8362065F3071283F83620A5
:1087E00093F84C2042F0010283F84C2093F84D207E
:1087F00042F0010283F84D20C3F89800C3F89810A6
:1088000003F5204303211A6842F080421A601A6877
:1088100042F000521A601A6842F080521A601A68D8
:1088200042F440121A601A686FF311421A601A6813
:1088300061F384021A601A682A431A603F21DA69D8
:1088400092070DD40A4B4FF4E7521A80FFF778FFD6
:10885000064B4FF40042C3F894204023236038BDF8
:108860002160ECE79021002040420F000080004191
:10887000C0260020FEE7000008B51C4A1C4B52F839
:10888000041C99420AD1002342F8043C194A82F39D
:108890000888194A936041F267231847174A184B12
:1088A0009A4202D017498B4218D3174B174A00211E
:1088B000934218D3164A104B22F07F029A60D3F8E5
:1088C000882042F47002C3F88820BFF34F8FBFF3B3
:1088D0006F8F02F0A9FEFFF7A5FEFEE752F8040B2A
:1088E00043F8040BDFE743F8041BE1E70000022034
:1088F00000CA9A3B1888002000ED00E098BD0000F7
:1089000000000020641C0020701C0020342B00207C
:108910000040000000F0D6BC00F0D7BC08B501F064
:10892000CFFEBDE8084000F0D1BC00F0CCBC00F0A8
:10893000CBBC0000014B012018707047501F002075
:10894000014B00221A707047501F0020014B01207C
:1089500058707047501F0020014B00225A7070471A
:10896000501F0020014B012098707047501F0020BD
:10897000014B00229A707047501F002070B5114AB9
:10898000137863B153681B681C79844207D99360DC
:108990005D8800241D44AB4203D304B193600020E2
:1089A0000BE05E78042E09D19E78864206D1DE78EF
:1089B0008E4203D104B19360012070BD1C78234422
:1089C0000124E8E7541F0020024B987800F07F0054
:1089D00002F03AB8F02A0020084B5B681B685A88FE
:1089E0001A4403781844904201D3002004E04378ED
:1089F000042BFAD0052BF4D1704700BF541F002080
:108A000070B50646FFF7BAFF68B10C4DAC6820465A
:108A1000FFF7E2FF044640B18288C178807801F018
:108A200079FE0028F3D1002070BD6B685B6853F8B5
:108A30002630BDE870401B68184700BF541F002057
:108A400070B500210546FFF799FF10B900252846AB
:108A500070BD0D4C63685B6853F82560F3689847F8
:108A600001462846FFF78AFF05460028EED0A46895
:108A70002046FFF7B1FF044618B1807801F028FEC8
:108A8000F6E773689847E2E7541F0020014B9868A7
:108A9000704700BF541F002002F036B838B50D4CA7
:108AA0002378A3B9A289002312F0020F23701D4678
:108AB00001D0FFF73CFFA58138BDFFF7C1FF0135AD
:108AC00063681B681B79E8B28342F6D8EAE70025A1
:108AD000F6E700BF541F002038B50A4C227872B95F
:108AE00038BD526852F823301B6903B198470135ED
:108AF000626813681979EBB29942F2D8F0E7002561
:108B0000F6E700BF541F00202DE9F041A94C0023D7
:108B1000A381C4E9043323785AB2002A05DAE18834
:108B200019B900252846BDE8F08113F060011ED177
:108B3000002A03F01F0380F2F880E588BDB1002B06
:108B400040F0B6806378062B0AD0082B00F0A8808E
:108B50006BB9022D0BD19848294601F095FF50E0E2
:108B600063881D0A022D39D028D8012D30D02378F2
:108B700003F01F03012B00F09F81237803F01F03F4
:108B8000022BCED18D4F3A78002ACAD000257B68BF
:108B90001A681279ECB2A242C3D95B6853F8246018
:108BA000F368984701462046FFF7E8FE0028B8D052
:108BB000B368984701350028E9D022E0032D22D080
:108BC0000F2DD4D17E4B98680028D0D0418802E088
:108BD0007B4B1868017801F057FF0DE0784A116867
:108BE000497CDBB29942C2D9526852F833004188BD
:108BF00001F04AFFA3685D70E388A2899A4288BFAA
:108C0000A38101258EE7DBB2032BB0D8DFE803F0A8
:108C1000150245186B4B0D216B4D002228469E5CBA
:108C200025F8026F0132D6B2B142F8D801314900BD
:108C3000664BC9B283F82010CDE704216448CAE727
:108C4000644B53F8042C191F531C20D091421ED999
:108C500012F003031BD1604832F81350A5F121062E
:108C60005D2ED9B203D80133152B0DD11421534BEE
:108C70005A18002083F8231090730E334F4A92F84D
:108C800023100029C8D1B7E700F8015BE4E74B4B9C
:108C90000B2283F82320514BF0E70D214B4BBBE710
:108CA000012D7FF464AF4548294601F0EDFE39E718
:108CB000012B27D163780A2B7FF459AF012D7FF464
:108CC00056AF3E4E3378002B3FF451AFD6F80480B8
:108CD0002779D8F800301B79BB427FF648AF384679
:108CE000FFF74CFE054600283FF441AFD8F80430AA
:108CF00053F82730DB689847012186F8240006F1F5
:108D00002400D2E7022B7FF432AF6378002B7FF48C
:108D10002EAF022D7FF42BAF207901F05BFD0346CF
:108D20002648294620F8263F17E7002B40F0878089
:108D30006378013B082B3FF61AAF01A252F823F0EB
:108D4000738D00006F8B0000938D00006F8B00000F
:108D5000658D00006F8B00006F8B00006F8B000033
:108D6000E58D0000E388002B7FF401AF1C4B2361ED
:108D700047E7E388002B7FF4FAAE6588012D7FF486
:108D8000F6AE0E4A938923F002039381FFF7CFFDDD
:108D9000C8E6E388002B7FF4EAAE6588012D7FF4F6
:108DA000E6AE064A938943F002039381FFF7BDFDC7
:108DB000B8E600BFF02A0020601F0020541F0020EA
:108DC000AC17002086160020981600207816002088
:108DD0009416002000400000621F002096BC000096
:108DE000C9890000E588002D7FF4C1AE01F034FE92
:108DF00000283FF4BCAE434F3B685A7CA3789A42AC
:108E0000FFF4B5AEFFF74AFE3F4EA3783370002B58
:108E10003FF4F7AE03F100537A68013B02EBC30362
:108E2000736073681B681B79E8B283427FF6E9AE12
:108E30000021FFF7E5FD01350028F2D197E6012B6F
:108E40001CD163780B2B7FF492AEE388002B7FF468
:108E50008EAE2D4B1B78002B3FF489AE25796688AA
:108E60002846FFF7EDFD00283FF481AEF1B2284619
:108E7000FFF7C6FD00287FF4C4AE78E6022B7FF42E
:108E800076AE6378012B0ED0032B7FF470AEE288B0
:108E9000638813437FF46BAE207901F0F7FB2079F0
:108EA00001F09EFCE6E7E288638813437FF45FAE3F
:108EB000207901F00FFDDDE7134B1A78002A3FF40B
:108EC00030AE5E68257933681B79AB427FF629AEF8
:108ED00000212846FFF752FD00283FF44EAE73688C
:108EE00053F82560F368984701462846FFF746FD8A
:108EF00000283FF442AEB368984700287FF481AE63
:108F00003BE600BFAC170020541F00200020704734
:108F1000034A0023C2E90033024A1370704700BFBE
:108F2000C4260020D02600202DE9F041264C2678CA
:108F30001746320606F0600533D5FDB96378062B77
:108F400001D0002029E0FFF7A1FD837A212BF8D181
:108F500063881B0A212BDAB20AD100F10903A3604E
:108F6000437AE288934228BF1346A381012014E08C
:108F7000C37B9342E5D1A760038AF2E7202DE0D1BD
:108F80006278022A06D0032A09D0012AD9D1BDE885
:108F9000F0411847A0600120A081BDE8F081A160E8
:108FA000F9E7202DCDD162780A2A03D00B2A05D00B
:108FB000092AEBE763881B0A0370D7E7E388002BD5
:108FC000BFD163880B70D1E7F02A002000207047E2
:108FD000094B5888020A022A0CD110F0FF0009D16F
:108FE000DA88012A07D105499960054919619A81F2
:108FF0001046704700207047F02A002010270020FC
:109000000590000070470000094B5888020A022AA8
:109010000CD110F0FF0009D1DA88012A07D10549E7
:109020009960054919619A81104670470020704780
:10903000F02A00200C27002053910000094B58888B
:10904000020A022A0CD110F0FF0009D1DA88012AA5
:1090500007D105499960054919619A811046704701
:1090600000207047F02A0020E426002051910000E3
:10907000064A002313701371054A1370054AC2E9AA
:109080000033054A1370FFF755BC00BF7C1F00205A
:10909000E1260020D8260020E0260020FFF750BC63
:1090A0000248034B034A011DFFF73EBF7C1F00200F
:1090B000D18F0000C41600200348044B044A00F17D
:1090C00008010C30FFF730BF7C1F00200990000022
:1090D000001700200348044B044A00F1100114302B
:1090E000FFF722BF7C1F00203D9000003C170020AE
:1090F000084B094810B500241C731C72074B21460D
:1091000020221C7002F04EFB054B1C70BDE8104085
:10911000FFF71CBC7C1F0020E8260020E32600206F
:10912000D4260020FFF718BC054A002313751374DA
:109130005375044A13809370034A1370FFF712BCEF
:109140007C1F002008270020E2260020FFF710BC2B
:1091500070477047002070470020704737B5104BAC
:109160001B7803F0FF00B3B10E4C237803F0FF052A
:109170009BB90D4B0D4A93E803000D4B1D700D4B31
:1091800082E80300009329460823812001F0BCFBFC
:1091900020702078C0B203B030BD0020FBE700BFD4
:1091A000501F0020E1260020D8260020941F002018
:1091B000E0260020B9910000044B00221A70044BF5
:1091C0001B780BB1FFF7CABF704700BFE126002034
:1091D000E0260020F7B5124B1B7803F0FF00D3B157
:1091E000104E337803F0FF07BBB90F4D0F4C0FCD76
:1091F0000FC495E80F0084E80F000D4B1F700D4B56
:109200000093A4F1100220233946832001F07CFB57
:1092100030703078C0B203B0F0BD0020FBE700BF73
:10922000511F0020E3260020E82600209C1F00207C
:10923000D426002039920000044B00221A70044BFF
:109240001B780BB1FFF7C6BF704700BFE3260020B5
:10925000D426002013B50F4B1B7803F0FF00A3B1F9
:109260000D4C617D99B90D4B1B68A4F840301B0C67
:1092700084F842300A4B19700A4B009304F1400203
:109280000323822001F040FB607502B010BD002076
:10929000FBE700BF521F00207C1F00200827002092
:1092A000E2260020A9920000044B00225A75044BCC
:1092B0001B780BB1FFF7CEBF704700BF7C1F0020AB
:1092C000E2260020704770477047704770470000E3
:1092D0002DE9F041184C194E194F4C2323600025FD
:1092E0004FF02008174B184A35702B4486F8018040
:1092F00003F1200153F8040B42F8040B8B42F9D11F
:109300004CF25033222231465820FEF7B1FA7B68E6
:1093100043F440337B604D22FB695B070AD4642031
:109320002035FDF78DFFB5F5807FDBD14E2323601F
:10933000BDE8F0812260EFE7902100201327002094
:10934000003000403C2700201527002070B5814CDC
:10935000814E6D23236040F63C150C20FDF7A4FCE4
:10936000A842308040F2DF807C4BD3F8A8206FF316
:109370000302C3F8A820D3F8A82042F04002C3F8A3
:10938000A820A3F5A05307211A6942F480621A614C
:109390009A6942F001029A61714B772283F83C206E
:1093A00093F8582042F0010283F8582093F859208E
:1093B00042F0010283F8592093F8BB2061F30302C5
:1093C00083F8BB2093F8D62042F0010283F8D62020
:1093D000644B1A7F6FF341021A776F2193F82C20A8
:1093E000950700F1A3805F4B702193F82C20500764
:1093F00000F19E8093F8202042F0080283F820209C
:10940000584B712193F82C20520700F1938093F868
:109410002020544942F0010283F82020722391F861
:109420002C20C2F38002002A40F0868091F8203080
:1094300062F3451381F820304A4B732193F82C20B6
:1094400056077BD493F8202042F0100283F82020A6
:109450009A6A4BF6803161F30F029A62414B742194
:1094600093F82C20D5066BD41A7F42F002021A77AB
:109470003C4A752192F82C30980763D44FF0824310
:1094800076211A7842F001021A709A78D2075BD4DA
:109490004FF0824377211A7812F0010256D1198DCC
:1094A000042060F38A111985198D62F3040119856E
:1094B000198D62F30E311985198962F383011981BF
:1094C000197862F3C71119701A7842F002021A7003
:1094D0004FF0824378229D78C5F34005002D37D1A7
:1094E000DA78022161F38302DA70DA7861F301023B
:1094F000DA701B4A92F852300B4382F85230FEF772
:1095000023F9194A537863F03F035370FFF718F9B2
:109510006420FDF795FE154B1D70154B01221A7046
:109520007923236070BD6E23236016E7216055E721
:1095300021605AE7216065E7236070E721607DE7DD
:1095400021608DE7216095E721609EE72160A2E719
:109550002260C0E79021002010210020001C004064
:109560000080004100100040C02600203627002067
:109570001227002038B50B4C0B4D44232B60637829
:109580006FF386136370FFF7DBF80220FDF758FED8
:10959000637843F040036370FFF7D2F845232B60F4
:1095A00038BD00BFC026002090210020F8B54FF440
:1095B000807200213248334D02F0F4F8324B1A1F0A
:1095C00053F8043C49212960591C55D09A4253D97B
:1095D00013F0030050D119464A2633F81040213CBD
:1095E0005D2CC2B203D80130152843D11422244C7B
:1095F0004FF49B6020804EF6C560608040F2011001
:10960000A080A079627560F05F00A071207A40F0C0
:109610000100207214206073E0730D20E0740C20B0
:1096200020751A4804F1160600F1180750F8043B9B
:1096300046F8043BB842F9D103883380144B1548EF
:1096400003F1180653F8047B40F8047BB342F9D1C8
:109650005200114802F00CF894F8FF3043F0010377
:1096600084F8FF30FFF734FE0C4B00221A804B23A6
:109670002B60F8BD2E60B0E70B220949B7E700BFA9
:109680003C2700209021002000400000B8BC0000D2
:10969000D2BC000090270020CE27002038270020D1
:1096A000A2BC0000024B186AC0F38040704700BFA4
:1096B000008000412DE9F8432E4D2F4C2F4E304FA6
:1096C000DFF8CC9046232B60022333703B70238855
:1096D00023F4BE5343F4A6532380FFF731F8FA2056
:1096E0000021FDF7BBFD40F63C180C20FDF7DCFA2D
:1096F0004045A9F800002DD90E20FDF7D5FADFF876
:109700009480A8F800000D20FDF7CEFA1D4B1E4AEC
:109710001880B8F80030138098421C4A23881080C3
:1097200023F42F5319D243F428632380FFF708F85A
:1097300063786FF304136370FFF702F8002333704C
:1097400000233B70FFF716FFFFF730FF48232B6025
:10975000BDE8F88347232B60C7E743F40553238014
:10976000FEF7EEFF63786FF304136370FEF7E8FF14
:109770000123E4E790210020C02600203A270020A2
:10978000352700200C210020082100200E21002078
:10979000102100200A2100202DE9F041204C214F0A
:1097A000DFF88880204D41232360FFF783FFFDF71A
:1097B00015F900F5FA66FFF775FF18B1432323602A
:1097C000012027E0FDF70AF94FF4FA62002301F0C7
:1097D000A9FD3988B8F80030994208D96FF4FA70B9
:1097E0000244622A4FF0006309D96B6108E007D296
:1097F0006FF4FA715318622B0ED84FF00063AB610F
:10980000FDF7ECF800238B4208BF8642D3D24223F7
:1098100023600020BDE8F0816FF42F731A44E0E765
:10982000902100200A210020008000410C2100200E
:1098300010B5184A12780328044614BF03460023C3
:10984000BAB9154A517863F300015170124AB3FA5C
:1098500083F351785B0963F382015170FEF770FF67
:109860000E4B012C1C700BD10D48BDE81040FFF7CA
:109870004DBB012A0CD1084A517863F34101E4E75A
:109880000CB90848F1E7032C0CBF07480748ECE780
:1098900010BD00BF3A270020C02600203527002039
:1098A000EABC0000FFBC000015BD000038BD000090
:1098B000F8B5274B1B7853BB0D20FDF7F5F9254C68
:1098C0000546208801F092FA1DA3D3E9002301F098
:1098D000F7FA064628460F4601F088FA1AA3D3E99C
:1098E000002301F0EDFA02460B463046394601F0FE
:1098F00031F901F0F7FC18490A7883B2032A238072
:1099000009D1B3F5617F01D900230B70F8BD012B9C
:10991000FCD10E20D1E71149087830B1002AF5D1E9
:109920000120BDE8F840FFF783BF1AB9B3F5617FA6
:10993000ECD2F5E7012AE9D1B3F5617FE6D9F0E78A
:10994000CDCCCCCCCCCCEC3F9A9999999999B93F94
:109950003A2700203827002035270020362700200E
:109960002DE9F0477B4C20680268158CADB25DBBD9
:10997000978BB0F8A260B0F8A030DFF8E881DFF88C
:10998000DCA1BFB21E403E4004F1040938F8023B9E
:109990003B421EBF22681268938333420FD0062DCC
:1099A00008BFBAF80830206802BFC3F30A1303F4F3
:1099B0008073636000EB850349465B689847013517
:1099C000072DE3D1BDE8F08700F1A406002345FA96
:1099D00003F1C907DFB240F1B68003F1080C02EBD6
:1099E0004C1101F10708C97996F808E096F8009043
:1099F000C9B201EA0E0E11F0600F0EEA090E1DD079
:109A000002EB431292F807114D060FD5402182F860
:109A1000071167F07F07A7731EF0600FD2D000EB2D
:109A20000313DB6A4C49BDE8F047184792F8071169
:109A30008906F1D5202182F80711ECE711F0100F0B
:109A400012D0102288F80020C21892F8AC20D2065A
:109A5000B8D5424A02EB431200EB031352689B6AEB
:109A6000C2F30D022281DDE711F0030F2BD0590163
:109A70000A4492F80751AD0712D5022582F8075122
:109A8000374A67F07F070A44A7735268C2F30D0292
:109A900062811EF0030F95D000EB03131B6AC1E730
:109AA00092F80751EE07F4D5012582F807512B4AA9
:109AB000A7730A445168C1F30D0121815268C2F3B2
:109AC0008D32A281E5E711F00C0F3CD059010A4418
:109AD00092F807512D071ED5082582F807511F4A15
